{
  "contractName": "NobelMain",
  "abi": [
    {
      "inputs": [
        {
          "internalType": "address",
          "name": "_litter",
          "type": "address"
        },
        {
          "internalType": "uint256",
          "name": "_initial_supply",
          "type": "uint256"
        },
        {
          "internalType": "uint256",
          "name": "_minting_allowance_per_call",
          "type": "uint256"
        },
        {
          "internalType": "uint256",
          "name": "_cool_down_time_per_mint",
          "type": "uint256"
        }
      ],
      "stateMutability": "nonpayable",
      "type": "constructor"
    },
    {
      "anonymous": false,
      "inputs": [
        {
          "indexed": true,
          "internalType": "address",
          "name": "previousOwner",
          "type": "address"
        },
        {
          "indexed": true,
          "internalType": "address",
          "name": "newOwner",
          "type": "address"
        }
      ],
      "name": "OwnershipTransferred",
      "type": "event"
    },
    {
      "inputs": [],
      "name": "owner",
      "outputs": [
        {
          "internalType": "address",
          "name": "",
          "type": "address"
        }
      ],
      "stateMutability": "view",
      "type": "function",
      "constant": true
    },
    {
      "inputs": [],
      "name": "renounceOwnership",
      "outputs": [],
      "stateMutability": "nonpayable",
      "type": "function"
    },
    {
      "inputs": [
        {
          "internalType": "address",
          "name": "newOwner",
          "type": "address"
        }
      ],
      "name": "transferOwnership",
      "outputs": [],
      "stateMutability": "nonpayable",
      "type": "function"
    },
    {
      "inputs": [
        {
          "internalType": "string",
          "name": "_litterUri",
          "type": "string"
        }
      ],
      "name": "createNobelLitter",
      "outputs": [],
      "stateMutability": "nonpayable",
      "type": "function"
    },
    {
      "inputs": [],
      "name": "getLittersContractAddress",
      "outputs": [
        {
          "internalType": "address",
          "name": "litter_",
          "type": "address"
        }
      ],
      "stateMutability": "view",
      "type": "function",
      "constant": true
    },
    {
      "inputs": [],
      "name": "getNobelsContractAddress",
      "outputs": [
        {
          "internalType": "address",
          "name": "nobel_",
          "type": "address"
        }
      ],
      "stateMutability": "view",
      "type": "function",
      "constant": true
    },
    {
      "inputs": [
        {
          "internalType": "address",
          "name": "_checker",
          "type": "address"
        }
      ],
      "name": "getBalanceOfLitter",
      "outputs": [
        {
          "internalType": "uint256",
          "name": "balance_",
          "type": "uint256"
        }
      ],
      "stateMutability": "view",
      "type": "function",
      "constant": true
    },
    {
      "inputs": [
        {
          "internalType": "address",
          "name": "_checker",
          "type": "address"
        }
      ],
      "name": "getBalanceOfNobels",
      "outputs": [
        {
          "internalType": "uint256",
          "name": "balance_",
          "type": "uint256"
        }
      ],
      "stateMutability": "view",
      "type": "function",
      "constant": true
    }
  ],
  "bytecode": "0x60806040523480156200001157600080fd5b5060405162004d6438038062004d648339818101604052810190620000379190620001f3565b600062000049620001af60201b60201c565b9050806000806101000a81548173ffffffffffffffffffffffffffffffffffffffff021916908373ffffffffffffffffffffffffffffffffffffffff1602179055508073ffffffffffffffffffffffffffffffffffffffff16600073ffffffffffffffffffffffffffffffffffffffff167f8be0079c531659141344cd1fd0a4f28419497f9722a3daafe3b4186f6b6457e060405160405180910390a35083600160006101000a81548173ffffffffffffffffffffffffffffffffffffffff021916908373ffffffffffffffffffffffffffffffffffffffff1602179055508282826040516200013990620001b7565b620001479392919062000270565b604051809103906000f08015801562000164573d6000803e3d6000fd5b50600260006101000a81548173ffffffffffffffffffffffffffffffffffffffff021916908373ffffffffffffffffffffffffffffffffffffffff160217905550505050506200031f565b600033905090565b613d46806200101e83390190565b600081519050620001d681620002eb565b92915050565b600081519050620001ed8162000305565b92915050565b600080600080608085870312156200020a57600080fd5b60006200021a87828801620001c5565b94505060206200022d87828801620001dc565b93505060406200024087828801620001dc565b92505060606200025387828801620001dc565b91505092959194509250565b6200026a81620002e1565b82525050565b60006060820190506200028760008301866200025f565b6200029660208301856200025f565b620002a560408301846200025f565b949350505050565b6000620002ba82620002c1565b9050919050565b600073ffffffffffffffffffffffffffffffffffffffff82169050919050565b6000819050919050565b620002f681620002ad565b81146200030257600080fd5b50565b6200031081620002e1565b81146200031c57600080fd5b50565b610cef806200032f6000396000f3fe608060405234801561001057600080fd5b50600436106100885760003560e01c80638da5cb5b1161005b5780638da5cb5b14610103578063b1f35d6514610121578063e968095f1461013d578063f2fde38b1461016d57610088565b8063331c62f81461008d5780636a1f94b1146100ab578063715018a6146100c957806378a65fb1146100d3575b600080fd5b610095610189565b6040516100a291906109c0565b60405180910390f35b6100b36101b3565b6040516100c091906109c0565b60405180910390f35b6100d16101dd565b005b6100ed60048036038101906100e89190610867565b610317565b6040516100fa9190610a74565b60405180910390f35b61010b6103cb565b60405161011891906109c0565b60405180910390f35b61013b600480360381019061013691906108b9565b6103f4565b005b61015760048036038101906101529190610867565b61055b565b6040516101649190610a74565b60405180910390f35b61018760048036038101906101829190610867565b61060f565b005b6000600160009054906101000a900473ffffffffffffffffffffffffffffffffffffffff16905090565b6000600260009054906101000a900473ffffffffffffffffffffffffffffffffffffffff16905090565b6101e56107b8565b73ffffffffffffffffffffffffffffffffffffffff166102036103cb565b73ffffffffffffffffffffffffffffffffffffffff1614610259576040517f08c379a000000000000000000000000000000000000000000000000000000000815260040161025090610a54565b60405180910390fd5b600073ffffffffffffffffffffffffffffffffffffffff1660008054906101000a900473ffffffffffffffffffffffffffffffffffffffff1673ffffffffffffffffffffffffffffffffffffffff167f8be0079c531659141344cd1fd0a4f28419497f9722a3daafe3b4186f6b6457e060405160405180910390a360008060006101000a81548173ffffffffffffffffffffffffffffffffffffffff021916908373ffffffffffffffffffffffffffffffffffffffff160217905550565b6000600260009054906101000a900473ffffffffffffffffffffffffffffffffffffffff1673ffffffffffffffffffffffffffffffffffffffff166370a08231836040518263ffffffff1660e01b815260040161037491906109c0565b60206040518083038186803b15801561038c57600080fd5b505afa1580156103a0573d6000803e3d6000fd5b505050506040513d601f19601f820116820180604052508101906103c491906108fa565b9050919050565b60008060009054906101000a900473ffffffffffffffffffffffffffffffffffffffff16905090565b6000600160009054906101000a900473ffffffffffffffffffffffffffffffffffffffff1673ffffffffffffffffffffffffffffffffffffffff1663a561403333846040518363ffffffff1660e01b81526004016104539291906109db565b602060405180830381600087803b15801561046d57600080fd5b505af1158015610481573d6000803e3d6000fd5b505050506040513d601f19601f820116820180604052508101906104a591906108fa565b9050600260009054906101000a900473ffffffffffffffffffffffffffffffffffffffff1673ffffffffffffffffffffffffffffffffffffffff1663a9059cbb33836040518363ffffffff1660e01b8152600401610504929190610a0b565b602060405180830381600087803b15801561051e57600080fd5b505af1158015610532573d6000803e3d6000fd5b505050506040513d601f19601f820116820180604052508101906105569190610890565b505050565b6000600160009054906101000a900473ffffffffffffffffffffffffffffffffffffffff1673ffffffffffffffffffffffffffffffffffffffff166370a08231836040518263ffffffff1660e01b81526004016105b891906109c0565b60206040518083038186803b1580156105d057600080fd5b505afa1580156105e4573d6000803e3d6000fd5b505050506040513d601f19601f8201168201806040525081019061060891906108fa565b9050919050565b6106176107b8565b73ffffffffffffffffffffffffffffffffffffffff166106356103cb565b73ffffffffffffffffffffffffffffffffffffffff161461068b576040517f08c379a000000000000000000000000000000000000000000000000000000000815260040161068290610a54565b60405180910390fd5b600073ffffffffffffffffffffffffffffffffffffffff168173ffffffffffffffffffffffffffffffffffffffff1614156106fb576040517f08c379a00000000000000000000000000000000000000000000000000000000081526004016106f290610a34565b60405180910390fd5b8073ffffffffffffffffffffffffffffffffffffffff1660008054906101000a900473ffffffffffffffffffffffffffffffffffffffff1673ffffffffffffffffffffffffffffffffffffffff167f8be0079c531659141344cd1fd0a4f28419497f9722a3daafe3b4186f6b6457e060405160405180910390a3806000806101000a81548173ffffffffffffffffffffffffffffffffffffffff021916908373ffffffffffffffffffffffffffffffffffffffff16021790555050565b600033905090565b60006107d36107ce84610ab4565b610a8f565b9050828152602081018484840111156107eb57600080fd5b6107f6848285610b49565b509392505050565b60008135905061080d81610c74565b92915050565b60008151905061082281610c8b565b92915050565b600082601f83011261083957600080fd5b81356108498482602086016107c0565b91505092915050565b60008151905061086181610ca2565b92915050565b60006020828403121561087957600080fd5b6000610887848285016107fe565b91505092915050565b6000602082840312156108a257600080fd5b60006108b084828501610813565b91505092915050565b6000602082840312156108cb57600080fd5b600082013567ffffffffffffffff8111156108e557600080fd5b6108f184828501610828565b91505092915050565b60006020828403121561090c57600080fd5b600061091a84828501610852565b91505092915050565b61092c81610b01565b82525050565b600061093d82610ae5565b6109478185610af0565b9350610957818560208601610b58565b61096081610beb565b840191505092915050565b6000610978602683610af0565b915061098382610bfc565b604082019050919050565b600061099b602083610af0565b91506109a682610c4b565b602082019050919050565b6109ba81610b3f565b82525050565b60006020820190506109d56000830184610923565b92915050565b60006040820190506109f06000830185610923565b8181036020830152610a028184610932565b90509392505050565b6000604082019050610a206000830185610923565b610a2d60208301846109b1565b9392505050565b60006020820190508181036000830152610a4d8161096b565b9050919050565b60006020820190508181036000830152610a6d8161098e565b9050919050565b6000602082019050610a8960008301846109b1565b92915050565b6000610a99610aaa565b9050610aa58282610b8b565b919050565b6000604051905090565b600067ffffffffffffffff821115610acf57610ace610bbc565b5b610ad882610beb565b9050602081019050919050565b600081519050919050565b600082825260208201905092915050565b6000610b0c82610b1f565b9050919050565b60008115159050919050565b600073ffffffffffffffffffffffffffffffffffffffff82169050919050565b6000819050919050565b82818337600083830152505050565b60005b83811015610b76578082015181840152602081019050610b5b565b83811115610b85576000848401525b50505050565b610b9482610beb565b810181811067ffffffffffffffff82111715610bb357610bb2610bbc565b5b80604052505050565b7f4e487b7100000000000000000000000000000000000000000000000000000000600052604160045260246000fd5b6000601f19601f8301169050919050565b7f4f776e61626c653a206e6577206f776e657220697320746865207a65726f206160008201527f6464726573730000000000000000000000000000000000000000000000000000602082015250565b7f4f776e61626c653a2063616c6c6572206973206e6f7420746865206f776e6572600082015250565b610c7d81610b01565b8114610c8857600080fd5b50565b610c9481610b13565b8114610c9f57600080fd5b50565b610cab81610b3f565b8114610cb657600080fd5b5056fea264697066735822122000b9daa9bad6c60cc405f83cc2407b39cb68a70357f12ed275c695a8fcda85a964736f6c6343000802003360806040526127106008556143806009553480156200001d57600080fd5b5060405162003d4638038062003d46833981810160405281019062000043919062000744565b6040518060400160405280600b81526020017f4e6f62656c20546f6b656e0000000000000000000000000000000000000000008152506040518060400160405280600381526020017f4e4254000000000000000000000000000000000000000000000000000000000081525081818160059080519060200190620000c99291906200067d565b508060069080519060200190620000e29291906200067d565b5050506000600760006101000a81548160ff021916908315150217905550620001246000801b62000118620001d860201b60201c565b620001e060201b60201c565b620001657f9f2df0fed2c77648de5860a4cc508cd0818c85b8b8a1ab4ceeef8d981c8956a662000159620001d860201b60201c565b620001e060201b60201c565b620001a67f65d7a28e3265b37a6474929f336521b332c1681b933f6cb9f3376673440d862a6200019a620001d860201b60201c565b620001e060201b60201c565b5050620001ba33846200022860201b60201c565b816008819055508060098190555042600a81905550505050620009f8565b600033905090565b620001f782826200038e60201b62000f841760201c565b620002238160016000858152602001908152602001600020620003a460201b62000f921790919060201c565b505050565b600073ffffffffffffffffffffffffffffffffffffffff168273ffffffffffffffffffffffffffffffffffffffff1614156200029b576040517f08c379a00000000000000000000000000000000000000000000000000000000081526004016200029290620007f9565b60405180910390fd5b620002af60008383620003dc60201b60201c565b8060046000828254620002c391906200086b565b9250508190555080600260008473ffffffffffffffffffffffffffffffffffffffff1673ffffffffffffffffffffffffffffffffffffffff16815260200190815260200160002060008282546200031b91906200086b565b925050819055508173ffffffffffffffffffffffffffffffffffffffff16600073ffffffffffffffffffffffffffffffffffffffff167fddf252ad1be2c89b69c2b068fc378daa952ba7f163c4a11628f55a4df523b3ef836040516200038291906200083d565b60405180910390a35050565b620003a08282620003f960201b60201c565b5050565b6000620003d4836000018373ffffffffffffffffffffffffffffffffffffffff1660001b620004ea60201b60201c565b905092915050565b620003f48383836200056460201b62000fc21760201c565b505050565b6200040b8282620005d460201b60201c565b620004e657600160008084815260200190815260200160002060000160008373ffffffffffffffffffffffffffffffffffffffff1673ffffffffffffffffffffffffffffffffffffffff16815260200190815260200160002060006101000a81548160ff0219169083151502179055506200048b620001d860201b60201c565b73ffffffffffffffffffffffffffffffffffffffff168173ffffffffffffffffffffffffffffffffffffffff16837f2f8788117e7eff1d82e926ec794901d17c78024a50270940304540a733656f0d60405160405180910390a45b5050565b6000620004fe83836200063e60201b60201c565b620005595782600001829080600181540180825580915050600190039060005260206000200160009091909190915055826000018054905083600101600084815260200190815260200160002081905550600190506200055e565b600090505b92915050565b6200057c8383836200066160201b6200101a1760201c565b6200058c6200066660201b60201c565b15620005cf576040517f08c379a0000000000000000000000000000000000000000000000000000000008152600401620005c6906200081b565b60405180910390fd5b505050565b600080600084815260200190815260200160002060000160008373ffffffffffffffffffffffffffffffffffffffff1673ffffffffffffffffffffffffffffffffffffffff16815260200190815260200160002060009054906101000a900460ff16905092915050565b600080836001016000848152602001908152602001600020541415905092915050565b505050565b6000600760009054906101000a900460ff16905090565b8280546200068b90620008d2565b90600052602060002090601f016020900481019282620006af5760008555620006fb565b82601f10620006ca57805160ff1916838001178555620006fb565b82800160010185558215620006fb579182015b82811115620006fa578251825591602001919060010190620006dd565b5b5090506200070a91906200070e565b5090565b5b80821115620007295760008160009055506001016200070f565b5090565b6000815190506200073e81620009de565b92915050565b6000806000606084860312156200075a57600080fd5b60006200076a868287016200072d565b93505060206200077d868287016200072d565b925050604062000790868287016200072d565b9150509250925092565b6000620007a9601f836200085a565b9150620007b68262000966565b602082019050919050565b6000620007d0602a836200085a565b9150620007dd826200098f565b604082019050919050565b620007f381620008c8565b82525050565b6000602082019050818103600083015262000814816200079a565b9050919050565b600060208201905081810360008301526200083681620007c1565b9050919050565b6000602082019050620008546000830184620007e8565b92915050565b600082825260208201905092915050565b60006200087882620008c8565b91506200088583620008c8565b9250827fffffffffffffffffffffffffffffffffffffffffffffffffffffffffffffffff03821115620008bd57620008bc62000908565b5b828201905092915050565b6000819050919050565b60006002820490506001821680620008eb57607f821691505b6020821081141562000902576200090162000937565b5b50919050565b7f4e487b7100000000000000000000000000000000000000000000000000000000600052601160045260246000fd5b7f4e487b7100000000000000000000000000000000000000000000000000000000600052602260045260246000fd5b7f45524332303a206d696e7420746f20746865207a65726f206164647265737300600082015250565b7f45524332305061757361626c653a20746f6b656e207472616e7366657220776860008201527f696c652070617573656400000000000000000000000000000000000000000000602082015250565b620009e981620008c8565b8114620009f557600080fd5b50565b61333e8062000a086000396000f3fe608060405234801561001057600080fd5b50600436106101e55760003560e01c806379cc67901161010f578063a9059cbb116100a2578063d539139311610071578063d5391393146105a8578063d547741f146105c6578063dd62ed3e146105e2578063e63ab1e914610612576101e5565b8063a9059cbb1461050c578063aecfe5051461053c578063ca15c8731461055a578063d2cdaf381461058a576101e5565b806395d89b41116100de57806395d89b4114610482578063a217fddf146104a0578063a457c2d7146104be578063a606fb59146104ee576101e5565b806379cc6790146103fc5780638456cb59146104185780639010d07c1461042257806391d1485414610452576101e5565b8063313ce5671161018757806340c10f191161015657806340c10f191461037657806342966c68146103925780635c975abb146103ae57806370a08231146103cc576101e5565b8063313ce5671461030257806336568abe14610320578063395093511461033c5780633f4ba83a1461036c576101e5565b806318160ddd116101c357806318160ddd1461026857806323b872dd14610286578063248a9ca3146102b65780632f2ff15d146102e6576101e5565b806301ffc9a7146101ea57806306fdde031461021a578063095ea7b314610238575b600080fd5b61020460048036038101906101ff91906122a2565b610630565b60405161021191906126b8565b60405180910390f35b6102226106aa565b60405161022f91906126ee565b60405180910390f35b610252600480360381019061024d91906121c5565b61073c565b60405161025f91906126b8565b60405180910390f35b61027061075a565b60405161027d91906129f0565b60405180910390f35b6102a0600480360381019061029b9190612176565b610764565b6040516102ad91906126b8565b60405180910390f35b6102d060048036038101906102cb9190612201565b610865565b6040516102dd91906126d3565b60405180910390f35b61030060048036038101906102fb919061222a565b610884565b005b61030a6108b8565b6040516103179190612a0b565b60405180910390f35b61033a6004803603810190610335919061222a565b6108bd565b005b610356600480360381019061035191906121c5565b6108f1565b60405161036391906126b8565b60405180910390f35b61037461099d565b005b610390600480360381019061038b91906121c5565b610a17565b005b6103ac60048036038101906103a791906122cb565b610a95565b005b6103b6610aa9565b6040516103c391906126b8565b60405180910390f35b6103e660048036038101906103e19190612111565b610ac0565b6040516103f391906129f0565b60405180910390f35b610416600480360381019061041191906121c5565b610b09565b005b610420610b8d565b005b61043c60048036038101906104379190612266565b610c07565b604051610449919061269d565b60405180910390f35b61046c6004803603810190610467919061222a565b610c36565b60405161047991906126b8565b60405180910390f35b61048a610ca0565b60405161049791906126ee565b60405180910390f35b6104a8610d32565b6040516104b591906126d3565b60405180910390f35b6104d860048036038101906104d391906121c5565b610d39565b6040516104e591906126b8565b60405180910390f35b6104f6610e2d565b60405161050391906129f0565b60405180910390f35b610526600480360381019061052191906121c5565b610e33565b60405161053391906126b8565b60405180910390f35b610544610e51565b60405161055191906129f0565b60405180910390f35b610574600480360381019061056f9190612201565b610e57565b60405161058191906129f0565b60405180910390f35b610592610e7b565b60405161059f91906129f0565b60405180910390f35b6105b0610e81565b6040516105bd91906126d3565b60405180910390f35b6105e060048036038101906105db919061222a565b610ea5565b005b6105fc60048036038101906105f7919061213a565b610ed9565b60405161060991906129f0565b60405180910390f35b61061a610f60565b60405161062791906126d3565b60405180910390f35b60007f5a05180f000000000000000000000000000000000000000000000000000000007bffffffffffffffffffffffffffffffffffffffffffffffffffffffff1916827bffffffffffffffffffffffffffffffffffffffffffffffffffffffff191614806106a357506106a28261101f565b5b9050919050565b6060600580546106b990612b8a565b80601f01602080910402602001604051908101604052809291908181526020018280546106e590612b8a565b80156107325780601f1061070757610100808354040283529160200191610732565b820191906000526020600020905b81548152906001019060200180831161071557829003601f168201915b5050505050905090565b6000610750610749611099565b84846110a1565b6001905092915050565b6000600454905090565b600061077184848461126c565b6000600360008673ffffffffffffffffffffffffffffffffffffffff1673ffffffffffffffffffffffffffffffffffffffff16815260200190815260200160002060006107bc611099565b73ffffffffffffffffffffffffffffffffffffffff1673ffffffffffffffffffffffffffffffffffffffff1681526020019081526020016000205490508281101561083c576040517f08c379a000000000000000000000000000000000000000000000000000000000815260040161083390612890565b60405180910390fd5b61085985610848611099565b85846108549190612a98565b6110a1565b60019150509392505050565b6000806000838152602001908152602001600020600101549050919050565b61088e82826114ee565b6108b38160016000858152602001908152602001600020610f9290919063ffffffff16565b505050565b600090565b6108c78282611554565b6108ec81600160008581526020019081526020016000206115d790919063ffffffff16565b505050565b60006109936108fe611099565b84846003600061090c611099565b73ffffffffffffffffffffffffffffffffffffffff1673ffffffffffffffffffffffffffffffffffffffff16815260200190815260200160002060008873ffffffffffffffffffffffffffffffffffffffff1673ffffffffffffffffffffffffffffffffffffffff1681526020019081526020016000205461098e9190612a42565b6110a1565b6001905092915050565b6109ce7f65d7a28e3265b37a6474929f336521b332c1681b933f6cb9f3376673440d862a6109c9611099565b610c36565b610a0d576040517f08c379a0000000000000000000000000000000000000000000000000000000008152600401610a04906127b0565b60405180910390fd5b610a15611607565b565b610a487f9f2df0fed2c77648de5860a4cc508cd0818c85b8b8a1ab4ceeef8d981c8956a6610a43611099565b610c36565b610a87576040517f08c379a0000000000000000000000000000000000000000000000000000000008152600401610a7e906128b0565b60405180910390fd5b610a9182826116a9565b5050565b610aa6610aa0611099565b82611757565b50565b6000600760009054906101000a900460ff16905090565b6000600260008373ffffffffffffffffffffffffffffffffffffffff1673ffffffffffffffffffffffffffffffffffffffff168152602001908152602001600020549050919050565b6000610b1c83610b17611099565b610ed9565b905081811015610b61576040517f08c379a0000000000000000000000000000000000000000000000000000000008152600401610b58906128d0565b60405180910390fd5b610b7e83610b6d611099565b8484610b799190612a98565b6110a1565b610b888383611757565b505050565b610bbe7f65d7a28e3265b37a6474929f336521b332c1681b933f6cb9f3376673440d862a610bb9611099565b610c36565b610bfd576040517f08c379a0000000000000000000000000000000000000000000000000000000008152600401610bf490612950565b60405180910390fd5b610c0561192d565b565b6000610c2e82600160008681526020019081526020016000206119d090919063ffffffff16565b905092915050565b600080600084815260200190815260200160002060000160008373ffffffffffffffffffffffffffffffffffffffff1673ffffffffffffffffffffffffffffffffffffffff16815260200190815260200160002060009054906101000a900460ff16905092915050565b606060068054610caf90612b8a565b80601f0160208091040260200160405190810160405280929190818152602001828054610cdb90612b8a565b8015610d285780601f10610cfd57610100808354040283529160200191610d28565b820191906000526020600020905b815481529060010190602001808311610d0b57829003601f168201915b5050505050905090565b6000801b81565b60008060036000610d48611099565b73ffffffffffffffffffffffffffffffffffffffff1673ffffffffffffffffffffffffffffffffffffffff16815260200190815260200160002060008573ffffffffffffffffffffffffffffffffffffffff1673ffffffffffffffffffffffffffffffffffffffff16815260200190815260200160002054905082811015610e05576040517f08c379a0000000000000000000000000000000000000000000000000000000008152600401610dfc90612970565b60405180910390fd5b610e22610e10611099565b858584610e1d9190612a98565b6110a1565b600191505092915050565b60095481565b6000610e47610e40611099565b848461126c565b6001905092915050565b60085481565b6000610e74600160008481526020019081526020016000206119ea565b9050919050565b600a5481565b7f9f2df0fed2c77648de5860a4cc508cd0818c85b8b8a1ab4ceeef8d981c8956a681565b610eaf82826119ff565b610ed481600160008581526020019081526020016000206115d790919063ffffffff16565b505050565b6000600360008473ffffffffffffffffffffffffffffffffffffffff1673ffffffffffffffffffffffffffffffffffffffff16815260200190815260200160002060008373ffffffffffffffffffffffffffffffffffffffff1673ffffffffffffffffffffffffffffffffffffffff16815260200190815260200160002054905092915050565b7f65d7a28e3265b37a6474929f336521b332c1681b933f6cb9f3376673440d862a81565b610f8e8282611a65565b5050565b6000610fba836000018373ffffffffffffffffffffffffffffffffffffffff1660001b611b45565b905092915050565b610fcd83838361101a565b610fd5610aa9565b15611015576040517f08c379a000000000000000000000000000000000000000000000000000000000815260040161100c906129d0565b60405180910390fd5b505050565b505050565b60007f7965db0b000000000000000000000000000000000000000000000000000000007bffffffffffffffffffffffffffffffffffffffffffffffffffffffff1916827bffffffffffffffffffffffffffffffffffffffffffffffffffffffff19161480611092575061109182611bb5565b5b9050919050565b600033905090565b600073ffffffffffffffffffffffffffffffffffffffff168373ffffffffffffffffffffffffffffffffffffffff161415611111576040517f08c379a000000000000000000000000000000000000000000000000000000000815260040161110890612930565b60405180910390fd5b600073ffffffffffffffffffffffffffffffffffffffff168273ffffffffffffffffffffffffffffffffffffffff161415611181576040517f08c379a0000000000000000000000000000000000000000000000000000000008152600401611178906127f0565b60405180910390fd5b80600360008573ffffffffffffffffffffffffffffffffffffffff1673ffffffffffffffffffffffffffffffffffffffff16815260200190815260200160002060008473ffffffffffffffffffffffffffffffffffffffff1673ffffffffffffffffffffffffffffffffffffffff168152602001908152602001600020819055508173ffffffffffffffffffffffffffffffffffffffff168373ffffffffffffffffffffffffffffffffffffffff167f8c5be1e5ebec7d5bd14f71427d1e84f3dd0314c0f7b2291e5b200ac8c7c3b9258360405161125f91906129f0565b60405180910390a3505050565b600073ffffffffffffffffffffffffffffffffffffffff168373ffffffffffffffffffffffffffffffffffffffff1614156112dc576040517f08c379a00000000000000000000000000000000000000000000000000000000081526004016112d390612910565b60405180910390fd5b600073ffffffffffffffffffffffffffffffffffffffff168273ffffffffffffffffffffffffffffffffffffffff16141561134c576040517f08c379a000000000000000000000000000000000000000000000000000000000815260040161134390612730565b60405180910390fd5b611357838383611c1f565b6000600260008573ffffffffffffffffffffffffffffffffffffffff1673ffffffffffffffffffffffffffffffffffffffff168152602001908152602001600020549050818110156113de576040517f08c379a00000000000000000000000000000000000000000000000000000000081526004016113d590612830565b60405180910390fd5b81816113ea9190612a98565b600260008673ffffffffffffffffffffffffffffffffffffffff1673ffffffffffffffffffffffffffffffffffffffff1681526020019081526020016000208190555081600260008573ffffffffffffffffffffffffffffffffffffffff1673ffffffffffffffffffffffffffffffffffffffff168152602001908152602001600020600082825461147c9190612a42565b925050819055508273ffffffffffffffffffffffffffffffffffffffff168473ffffffffffffffffffffffffffffffffffffffff167fddf252ad1be2c89b69c2b068fc378daa952ba7f163c4a11628f55a4df523b3ef846040516114e091906129f0565b60405180910390a350505050565b6115076114fa83610865565b611502611099565b610c36565b611546576040517f08c379a000000000000000000000000000000000000000000000000000000000815260040161153d90612750565b60405180910390fd5b6115508282611a65565b5050565b61155c611099565b73ffffffffffffffffffffffffffffffffffffffff168173ffffffffffffffffffffffffffffffffffffffff16146115c9576040517f08c379a00000000000000000000000000000000000000000000000000000000081526004016115c090612990565b60405180910390fd5b6115d38282611c2f565b5050565b60006115ff836000018373ffffffffffffffffffffffffffffffffffffffff1660001b611d10565b905092915050565b61160f610aa9565b61164e576040517f08c379a000000000000000000000000000000000000000000000000000000000815260040161164590612770565b60405180910390fd5b6000600760006101000a81548160ff0219169083151502179055507f5db9ee0a495bf2e6ff9c91a7834c1ba4fdd244a5e8aa4e537bd38aeae4b073aa611692611099565b60405161169f919061269d565b60405180910390a1565b600954600a54426116ba9190612a98565b10156116fb576040517f08c379a00000000000000000000000000000000000000000000000000000000081526004016116f2906127d0565b60405180910390fd5b80600854811115611741576040517f08c379a000000000000000000000000000000000000000000000000000000000815260040161173890612810565b60405180910390fd5b42600a819055506117528383611e9a565b505050565b600073ffffffffffffffffffffffffffffffffffffffff168273ffffffffffffffffffffffffffffffffffffffff1614156117c7576040517f08c379a00000000000000000000000000000000000000000000000000000000081526004016117be906128f0565b60405180910390fd5b6117d382600083611c1f565b6000600260008473ffffffffffffffffffffffffffffffffffffffff1673ffffffffffffffffffffffffffffffffffffffff1681526020019081526020016000205490508181101561185a576040517f08c379a000000000000000000000000000000000000000000000000000000000815260040161185190612790565b60405180910390fd5b81816118669190612a98565b600260008573ffffffffffffffffffffffffffffffffffffffff1673ffffffffffffffffffffffffffffffffffffffff1681526020019081526020016000208190555081600460008282546118bb9190612a98565b92505081905550600073ffffffffffffffffffffffffffffffffffffffff168373ffffffffffffffffffffffffffffffffffffffff167fddf252ad1be2c89b69c2b068fc378daa952ba7f163c4a11628f55a4df523b3ef8460405161192091906129f0565b60405180910390a3505050565b611935610aa9565b15611975576040517f08c379a000000000000000000000000000000000000000000000000000000000815260040161196c90612870565b60405180910390fd5b6001600760006101000a81548160ff0219169083151502179055507f62e78cea01bee320cd4e420270b5ea74000d11b0c9f74754ebdbfc544b05a2586119b9611099565b6040516119c6919061269d565b60405180910390a1565b60006119df8360000183611fef565b60001c905092915050565b60006119f882600001612089565b9050919050565b611a18611a0b83610865565b611a13611099565b610c36565b611a57576040517f08c379a0000000000000000000000000000000000000000000000000000000008152600401611a4e90612850565b60405180910390fd5b611a618282611c2f565b5050565b611a6f8282610c36565b611b4157600160008084815260200190815260200160002060000160008373ffffffffffffffffffffffffffffffffffffffff1673ffffffffffffffffffffffffffffffffffffffff16815260200190815260200160002060006101000a81548160ff021916908315150217905550611ae6611099565b73ffffffffffffffffffffffffffffffffffffffff168173ffffffffffffffffffffffffffffffffffffffff16837f2f8788117e7eff1d82e926ec794901d17c78024a50270940304540a733656f0d60405160405180910390a45b5050565b6000611b51838361209a565b611baa578260000182908060018154018082558091505060019003906000526020600020016000909190919091505582600001805490508360010160008481526020019081526020016000208190555060019050611baf565b600090505b92915050565b60007f01ffc9a7000000000000000000000000000000000000000000000000000000007bffffffffffffffffffffffffffffffffffffffffffffffffffffffff1916827bffffffffffffffffffffffffffffffffffffffffffffffffffffffff1916149050919050565b611c2a838383610fc2565b505050565b611c398282610c36565b15611d0c57600080600084815260200190815260200160002060000160008373ffffffffffffffffffffffffffffffffffffffff1673ffffffffffffffffffffffffffffffffffffffff16815260200190815260200160002060006101000a81548160ff021916908315150217905550611cb1611099565b73ffffffffffffffffffffffffffffffffffffffff168173ffffffffffffffffffffffffffffffffffffffff16837ff6391f5c32d9c69d2a47ea670b442974b53935d1edc7fd64eb21e047a839171b60405160405180910390a45b5050565b60008083600101600084815260200190815260200160002054905060008114611e8e576000600182611d429190612a98565b9050600060018660000180549050611d5a9190612a98565b90506000866000018281548110611d9a577f4e487b7100000000000000000000000000000000000000000000000000000000600052603260045260246000fd5b9060005260206000200154905080876000018481548110611de4577f4e487b7100000000000000000000000000000000000000000000000000000000600052603260045260246000fd5b9060005260206000200181905550600183611dff9190612a42565b8760010160008381526020019081526020016000208190555086600001805480611e52577f4e487b7100000000000000000000000000000000000000000000000000000000600052603160045260246000fd5b60019003818190600052602060002001600090559055866001016000878152602001908152602001600020600090556001945050505050611e94565b60009150505b92915050565b600073ffffffffffffffffffffffffffffffffffffffff168273ffffffffffffffffffffffffffffffffffffffff161415611f0a576040517f08c379a0000000000000000000000000000000000000000000000000000000008152600401611f01906129b0565b60405180910390fd5b611f1660008383611c1f565b8060046000828254611f289190612a42565b9250508190555080600260008473ffffffffffffffffffffffffffffffffffffffff1673ffffffffffffffffffffffffffffffffffffffff1681526020019081526020016000206000828254611f7e9190612a42565b925050819055508173ffffffffffffffffffffffffffffffffffffffff16600073ffffffffffffffffffffffffffffffffffffffff167fddf252ad1be2c89b69c2b068fc378daa952ba7f163c4a11628f55a4df523b3ef83604051611fe391906129f0565b60405180910390a35050565b60008183600001805490501161203a576040517f08c379a000000000000000000000000000000000000000000000000000000000815260040161203190612710565b60405180910390fd5b826000018281548110612076577f4e487b7100000000000000000000000000000000000000000000000000000000600052603260045260246000fd5b9060005260206000200154905092915050565b600081600001805490509050919050565b600080836001016000848152602001908152602001600020541415905092915050565b6000813590506120cc816132ac565b92915050565b6000813590506120e1816132c3565b92915050565b6000813590506120f6816132da565b92915050565b60008135905061210b816132f1565b92915050565b60006020828403121561212357600080fd5b6000612131848285016120bd565b91505092915050565b6000806040838503121561214d57600080fd5b600061215b858286016120bd565b925050602061216c858286016120bd565b9150509250929050565b60008060006060848603121561218b57600080fd5b6000612199868287016120bd565b93505060206121aa868287016120bd565b92505060406121bb868287016120fc565b9150509250925092565b600080604083850312156121d857600080fd5b60006121e6858286016120bd565b92505060206121f7858286016120fc565b9150509250929050565b60006020828403121561221357600080fd5b6000612221848285016120d2565b91505092915050565b6000806040838503121561223d57600080fd5b600061224b858286016120d2565b925050602061225c858286016120bd565b9150509250929050565b6000806040838503121561227957600080fd5b6000612287858286016120d2565b9250506020612298858286016120fc565b9150509250929050565b6000602082840312156122b457600080fd5b60006122c2848285016120e7565b91505092915050565b6000602082840312156122dd57600080fd5b60006122eb848285016120fc565b91505092915050565b6122fd81612acc565b82525050565b61230c81612ade565b82525050565b61231b81612aea565b82525050565b600061232c82612a26565b6123368185612a31565b9350612346818560208601612b57565b61234f81612c1a565b840191505092915050565b6000612367602283612a31565b915061237282612c2b565b604082019050919050565b600061238a602383612a31565b915061239582612c7a565b604082019050919050565b60006123ad602f83612a31565b91506123b882612cc9565b604082019050919050565b60006123d0601483612a31565b91506123db82612d18565b602082019050919050565b60006123f3602283612a31565b91506123fe82612d41565b604082019050919050565b6000612416603983612a31565b915061242182612d90565b604082019050919050565b6000612439602f83612a31565b915061244482612ddf565b604082019050919050565b600061245c602283612a31565b915061246782612e2e565b604082019050919050565b600061247f601f83612a31565b915061248a82612e7d565b602082019050919050565b60006124a2602683612a31565b91506124ad82612ea6565b604082019050919050565b60006124c5603083612a31565b91506124d082612ef5565b604082019050919050565b60006124e8601083612a31565b91506124f382612f44565b602082019050919050565b600061250b602883612a31565b915061251682612f6d565b604082019050919050565b600061252e603683612a31565b915061253982612fbc565b604082019050919050565b6000612551602483612a31565b915061255c8261300b565b604082019050919050565b6000612574602183612a31565b915061257f8261305a565b604082019050919050565b6000612597602583612a31565b91506125a2826130a9565b604082019050919050565b60006125ba602483612a31565b91506125c5826130f8565b604082019050919050565b60006125dd603783612a31565b91506125e882613147565b604082019050919050565b6000612600602583612a31565b915061260b82613196565b604082019050919050565b6000612623602f83612a31565b915061262e826131e5565b604082019050919050565b6000612646601f83612a31565b915061265182613234565b602082019050919050565b6000612669602a83612a31565b91506126748261325d565b604082019050919050565b61268881612b40565b82525050565b61269781612b4a565b82525050565b60006020820190506126b260008301846122f4565b92915050565b60006020820190506126cd6000830184612303565b92915050565b60006020820190506126e86000830184612312565b92915050565b600060208201905081810360008301526127088184612321565b905092915050565b600060208201905081810360008301526127298161235a565b9050919050565b600060208201905081810360008301526127498161237d565b9050919050565b60006020820190508181036000830152612769816123a0565b9050919050565b60006020820190508181036000830152612789816123c3565b9050919050565b600060208201905081810360008301526127a9816123e6565b9050919050565b600060208201905081810360008301526127c981612409565b9050919050565b600060208201905081810360008301526127e98161242c565b9050919050565b600060208201905081810360008301526128098161244f565b9050919050565b6000602082019050818103600083015261282981612472565b9050919050565b6000602082019050818103600083015261284981612495565b9050919050565b60006020820190508181036000830152612869816124b8565b9050919050565b60006020820190508181036000830152612889816124db565b9050919050565b600060208201905081810360008301526128a9816124fe565b9050919050565b600060208201905081810360008301526128c981612521565b9050919050565b600060208201905081810360008301526128e981612544565b9050919050565b6000602082019050818103600083015261290981612567565b9050919050565b600060208201905081810360008301526129298161258a565b9050919050565b60006020820190508181036000830152612949816125ad565b9050919050565b60006020820190508181036000830152612969816125d0565b9050919050565b60006020820190508181036000830152612989816125f3565b9050919050565b600060208201905081810360008301526129a981612616565b9050919050565b600060208201905081810360008301526129c981612639565b9050919050565b600060208201905081810360008301526129e98161265c565b9050919050565b6000602082019050612a05600083018461267f565b92915050565b6000602082019050612a20600083018461268e565b92915050565b600081519050919050565b600082825260208201905092915050565b6000612a4d82612b40565b9150612a5883612b40565b9250827fffffffffffffffffffffffffffffffffffffffffffffffffffffffffffffffff03821115612a8d57612a8c612bbc565b5b828201905092915050565b6000612aa382612b40565b9150612aae83612b40565b925082821015612ac157612ac0612bbc565b5b828203905092915050565b6000612ad782612b20565b9050919050565b60008115159050919050565b6000819050919050565b60007fffffffff0000000000000000000000000000000000000000000000000000000082169050919050565b600073ffffffffffffffffffffffffffffffffffffffff82169050919050565b6000819050919050565b600060ff82169050919050565b60005b83811015612b75578082015181840152602081019050612b5a565b83811115612b84576000848401525b50505050565b60006002820490506001821680612ba257607f821691505b60208210811415612bb657612bb5612beb565b5b50919050565b7f4e487b7100000000000000000000000000000000000000000000000000000000600052601160045260246000fd5b7f4e487b7100000000000000000000000000000000000000000000000000000000600052602260045260246000fd5b6000601f19601f8301169050919050565b7f456e756d657261626c655365743a20696e646578206f7574206f6620626f756e60008201527f6473000000000000000000000000000000000000000000000000000000000000602082015250565b7f45524332303a207472616e7366657220746f20746865207a65726f206164647260008201527f6573730000000000000000000000000000000000000000000000000000000000602082015250565b7f416363657373436f6e74726f6c3a2073656e646572206d75737420626520616e60008201527f2061646d696e20746f206772616e740000000000000000000000000000000000602082015250565b7f5061757361626c653a206e6f7420706175736564000000000000000000000000600082015250565b7f45524332303a206275726e20616d6f756e7420657863656564732062616c616e60008201527f6365000000000000000000000000000000000000000000000000000000000000602082015250565b7f45524332305072657365744d696e7465725061757365723a206d75737420686160008201527f76652070617573657220726f6c6520746f20756e706175736500000000000000602082015250565b7f43616e6e6f7420696e6372656173652074686520737570706c7920776974686f60008201527f757420636f6f6c696e6720646f776e0000000000000000000000000000000000602082015250565b7f45524332303a20617070726f766520746f20746865207a65726f20616464726560008201527f7373000000000000000000000000000000000000000000000000000000000000602082015250565b7f43616e6e6f74206d696e74206d6f7265207468616e20616c6c6f77616e636500600082015250565b7f45524332303a207472616e7366657220616d6f756e742065786365656473206260008201527f616c616e63650000000000000000000000000000000000000000000000000000602082015250565b7f416363657373436f6e74726f6c3a2073656e646572206d75737420626520616e60008201527f2061646d696e20746f207265766f6b6500000000000000000000000000000000602082015250565b7f5061757361626c653a2070617573656400000000000000000000000000000000600082015250565b7f45524332303a207472616e7366657220616d6f756e742065786365656473206160008201527f6c6c6f77616e6365000000000000000000000000000000000000000000000000602082015250565b7f45524332305072657365744d696e7465725061757365723a206d75737420686160008201527f7665206d696e74657220726f6c6520746f206d696e7400000000000000000000602082015250565b7f45524332303a206275726e20616d6f756e74206578636565647320616c6c6f7760008201527f616e636500000000000000000000000000000000000000000000000000000000602082015250565b7f45524332303a206275726e2066726f6d20746865207a65726f2061646472657360008201527f7300000000000000000000000000000000000000000000000000000000000000602082015250565b7f45524332303a207472616e736665722066726f6d20746865207a65726f20616460008201527f6472657373000000000000000000000000000000000000000000000000000000602082015250565b7f45524332303a20617070726f76652066726f6d20746865207a65726f2061646460008201527f7265737300000000000000000000000000000000000000000000000000000000602082015250565b7f45524332305072657365744d696e7465725061757365723a206d75737420686160008201527f76652070617573657220726f6c6520746f207061757365000000000000000000602082015250565b7f45524332303a2064656372656173656420616c6c6f77616e63652062656c6f7760008201527f207a65726f000000000000000000000000000000000000000000000000000000602082015250565b7f416363657373436f6e74726f6c3a2063616e206f6e6c792072656e6f756e636560008201527f20726f6c657320666f722073656c660000000000000000000000000000000000602082015250565b7f45524332303a206d696e7420746f20746865207a65726f206164647265737300600082015250565b7f45524332305061757361626c653a20746f6b656e207472616e7366657220776860008201527f696c652070617573656400000000000000000000000000000000000000000000602082015250565b6132b581612acc565b81146132c057600080fd5b50565b6132cc81612aea565b81146132d757600080fd5b50565b6132e381612af4565b81146132ee57600080fd5b50565b6132fa81612b40565b811461330557600080fd5b5056fea2646970667358221220a048691659bc53c05b216502cf630c67ac802a273fa6d732953211e220ea02fa64736f6c63430008020033",
  "immutableReferences": {},
  "source": "pragma solidity ^0.8.0;\r\n\r\nimport './OpenNFT.sol';\r\nimport './NobelToken.sol';\r\n\r\ncontract NobelMain is Ownable {\r\n    \r\n    OpenNFT litters;\r\n    NobelToken nobels;\r\n    \r\n    constructor (\r\n        address _litter,\r\n        uint _initial_supply,\r\n        uint _minting_allowance_per_call,\r\n        uint _cool_down_time_per_mint\r\n        ) public {\r\n        litters = OpenNFT(_litter);\r\n        nobels = new NobelToken(_initial_supply, _minting_allowance_per_call, _cool_down_time_per_mint);\r\n    }\r\n\r\n    function createNobelLitter(string memory _litterUri) public {\r\n        uint reward = litters.createNFT(msg.sender, _litterUri);\r\n        nobels.transfer(msg.sender, reward);\r\n    }\r\n    \r\n    function getLittersContractAddress() public view returns(address litter_){\r\n        return address(litters);\r\n    }\r\n    \r\n    function getNobelsContractAddress() public view returns(address nobel_){\r\n        return address(nobels);\r\n    }\r\n    \r\n    function getBalanceOfLitter(address _checker) public view returns(uint balance_){\r\n        return litters.balanceOf(_checker);\r\n    }\r\n    \r\n    function getBalanceOfNobels(address _checker) public view returns(uint balance_){\r\n        return nobels.balanceOf(_checker);\r\n    }\r\n    \r\n}",
  "sourcePath": "E:/Projects/BlockchainBootcamp/OpenNFT/contracts/NobelMain.sol",
  "compiler": {
    "name": "solc",
    "version": "0.8.2+commit.661d1103.Emscripten.clang"
  },
  "schemaVersion": "3.3.4",
  "updatedAt": "2021-03-18T12:22:50.851Z",
  "networkType": "ethereum",
  "devdoc": {
    "kind": "dev",
    "methods": {
      "owner()": {
        "details": "Returns the address of the current owner."
      },
      "renounceOwnership()": {
        "details": "Leaves the contract without owner. It will not be possible to call `onlyOwner` functions anymore. Can only be called by the current owner. NOTE: Renouncing ownership will leave the contract without an owner, thereby removing any functionality that is only available to the owner."
      },
      "transferOwnership(address)": {
        "details": "Transfers ownership of the contract to a new account (`newOwner`). Can only be called by the current owner."
      }
    },
    "version": 1
  },
  "userdoc": {
    "kind": "user",
    "methods": {},
    "version": 1
  }
}