{
  "contractName": "OpenNFT",
  "abi": [
    {
      "inputs": [
        {
          "internalType": "string",
          "name": "_name",
          "type": "string"
        },
        {
          "internalType": "string",
          "name": "_symbol",
          "type": "string"
        }
      ],
      "stateMutability": "nonpayable",
      "type": "constructor"
    },
    {
      "anonymous": false,
      "inputs": [
        {
          "indexed": true,
          "internalType": "address",
          "name": "owner",
          "type": "address"
        },
        {
          "indexed": true,
          "internalType": "address",
          "name": "approved",
          "type": "address"
        },
        {
          "indexed": true,
          "internalType": "uint256",
          "name": "tokenId",
          "type": "uint256"
        }
      ],
      "name": "Approval",
      "type": "event"
    },
    {
      "anonymous": false,
      "inputs": [
        {
          "indexed": true,
          "internalType": "address",
          "name": "owner",
          "type": "address"
        },
        {
          "indexed": true,
          "internalType": "address",
          "name": "operator",
          "type": "address"
        },
        {
          "indexed": false,
          "internalType": "bool",
          "name": "approved",
          "type": "bool"
        }
      ],
      "name": "ApprovalForAll",
      "type": "event"
    },
    {
      "anonymous": false,
      "inputs": [
        {
          "indexed": false,
          "internalType": "uint256",
          "name": "_time",
          "type": "uint256"
        },
        {
          "indexed": false,
          "internalType": "address",
          "name": "_caller",
          "type": "address"
        }
      ],
      "name": "NFTInitialised",
      "type": "event"
    },
    {
      "anonymous": false,
      "inputs": [
        {
          "indexed": true,
          "internalType": "address",
          "name": "previousOwner",
          "type": "address"
        },
        {
          "indexed": true,
          "internalType": "address",
          "name": "newOwner",
          "type": "address"
        }
      ],
      "name": "OwnershipTransferred",
      "type": "event"
    },
    {
      "anonymous": false,
      "inputs": [
        {
          "indexed": true,
          "internalType": "address",
          "name": "from",
          "type": "address"
        },
        {
          "indexed": true,
          "internalType": "address",
          "name": "to",
          "type": "address"
        },
        {
          "indexed": true,
          "internalType": "uint256",
          "name": "tokenId",
          "type": "uint256"
        }
      ],
      "name": "Transfer",
      "type": "event"
    },
    {
      "inputs": [
        {
          "internalType": "address",
          "name": "to",
          "type": "address"
        },
        {
          "internalType": "uint256",
          "name": "tokenId",
          "type": "uint256"
        }
      ],
      "name": "approve",
      "outputs": [],
      "stateMutability": "nonpayable",
      "type": "function"
    },
    {
      "inputs": [
        {
          "internalType": "address",
          "name": "owner",
          "type": "address"
        }
      ],
      "name": "balanceOf",
      "outputs": [
        {
          "internalType": "uint256",
          "name": "",
          "type": "uint256"
        }
      ],
      "stateMutability": "view",
      "type": "function",
      "constant": true
    },
    {
      "inputs": [
        {
          "internalType": "uint256",
          "name": "tokenId",
          "type": "uint256"
        }
      ],
      "name": "getApproved",
      "outputs": [
        {
          "internalType": "address",
          "name": "",
          "type": "address"
        }
      ],
      "stateMutability": "view",
      "type": "function",
      "constant": true
    },
    {
      "inputs": [
        {
          "internalType": "address",
          "name": "owner",
          "type": "address"
        },
        {
          "internalType": "address",
          "name": "operator",
          "type": "address"
        }
      ],
      "name": "isApprovedForAll",
      "outputs": [
        {
          "internalType": "bool",
          "name": "",
          "type": "bool"
        }
      ],
      "stateMutability": "view",
      "type": "function",
      "constant": true
    },
    {
      "inputs": [],
      "name": "name",
      "outputs": [
        {
          "internalType": "string",
          "name": "",
          "type": "string"
        }
      ],
      "stateMutability": "view",
      "type": "function",
      "constant": true
    },
    {
      "inputs": [],
      "name": "owner",
      "outputs": [
        {
          "internalType": "address",
          "name": "",
          "type": "address"
        }
      ],
      "stateMutability": "view",
      "type": "function",
      "constant": true
    },
    {
      "inputs": [
        {
          "internalType": "uint256",
          "name": "tokenId",
          "type": "uint256"
        }
      ],
      "name": "ownerOf",
      "outputs": [
        {
          "internalType": "address",
          "name": "",
          "type": "address"
        }
      ],
      "stateMutability": "view",
      "type": "function",
      "constant": true
    },
    {
      "inputs": [],
      "name": "renounceOwnership",
      "outputs": [],
      "stateMutability": "nonpayable",
      "type": "function"
    },
    {
      "inputs": [
        {
          "internalType": "address",
          "name": "from",
          "type": "address"
        },
        {
          "internalType": "address",
          "name": "to",
          "type": "address"
        },
        {
          "internalType": "uint256",
          "name": "tokenId",
          "type": "uint256"
        }
      ],
      "name": "safeTransferFrom",
      "outputs": [],
      "stateMutability": "nonpayable",
      "type": "function"
    },
    {
      "inputs": [
        {
          "internalType": "address",
          "name": "from",
          "type": "address"
        },
        {
          "internalType": "address",
          "name": "to",
          "type": "address"
        },
        {
          "internalType": "uint256",
          "name": "tokenId",
          "type": "uint256"
        },
        {
          "internalType": "bytes",
          "name": "_data",
          "type": "bytes"
        }
      ],
      "name": "safeTransferFrom",
      "outputs": [],
      "stateMutability": "nonpayable",
      "type": "function"
    },
    {
      "inputs": [
        {
          "internalType": "address",
          "name": "operator",
          "type": "address"
        },
        {
          "internalType": "bool",
          "name": "approved",
          "type": "bool"
        }
      ],
      "name": "setApprovalForAll",
      "outputs": [],
      "stateMutability": "nonpayable",
      "type": "function"
    },
    {
      "inputs": [
        {
          "internalType": "bytes4",
          "name": "interfaceId",
          "type": "bytes4"
        }
      ],
      "name": "supportsInterface",
      "outputs": [
        {
          "internalType": "bool",
          "name": "",
          "type": "bool"
        }
      ],
      "stateMutability": "view",
      "type": "function",
      "constant": true
    },
    {
      "inputs": [],
      "name": "symbol",
      "outputs": [
        {
          "internalType": "string",
          "name": "",
          "type": "string"
        }
      ],
      "stateMutability": "view",
      "type": "function",
      "constant": true
    },
    {
      "inputs": [],
      "name": "tokenId",
      "outputs": [
        {
          "internalType": "uint256",
          "name": "_value",
          "type": "uint256"
        }
      ],
      "stateMutability": "view",
      "type": "function",
      "constant": true
    },
    {
      "inputs": [
        {
          "internalType": "address",
          "name": "from",
          "type": "address"
        },
        {
          "internalType": "address",
          "name": "to",
          "type": "address"
        },
        {
          "internalType": "uint256",
          "name": "tokenId",
          "type": "uint256"
        }
      ],
      "name": "transferFrom",
      "outputs": [],
      "stateMutability": "nonpayable",
      "type": "function"
    },
    {
      "inputs": [
        {
          "internalType": "address",
          "name": "newOwner",
          "type": "address"
        }
      ],
      "name": "transferOwnership",
      "outputs": [],
      "stateMutability": "nonpayable",
      "type": "function"
    },
    {
      "inputs": [
        {
          "internalType": "address",
          "name": "_creator",
          "type": "address"
        },
        {
          "internalType": "string",
          "name": "_tokenURI",
          "type": "string"
        }
      ],
      "name": "createNFT",
      "outputs": [
        {
          "internalType": "uint256",
          "name": "_reward",
          "type": "uint256"
        }
      ],
      "stateMutability": "nonpayable",
      "type": "function"
    },
    {
      "inputs": [
        {
          "internalType": "address",
          "name": "_creator",
          "type": "address"
        }
      ],
      "name": "getUserNFTs",
      "outputs": [
        {
          "internalType": "uint256[]",
          "name": "_tokens",
          "type": "uint256[]"
        }
      ],
      "stateMutability": "view",
      "type": "function",
      "constant": true
    },
    {
      "inputs": [
        {
          "internalType": "uint256",
          "name": "_tokenId",
          "type": "uint256"
        }
      ],
      "name": "getTokenUri",
      "outputs": [
        {
          "internalType": "string",
          "name": "tokenUri_",
          "type": "string"
        }
      ],
      "stateMutability": "view",
      "type": "function",
      "constant": true
    },
    {
      "inputs": [
        {
          "internalType": "uint256",
          "name": "_tokenId",
          "type": "uint256"
        }
      ],
      "name": "tokenURI",
      "outputs": [
        {
          "internalType": "string",
          "name": "_uri",
          "type": "string"
        }
      ],
      "stateMutability": "view",
      "type": "function",
      "constant": true
    },
    {
      "inputs": [
        {
          "internalType": "string",
          "name": "baseUri_",
          "type": "string"
        }
      ],
      "name": "setBaseUrl",
      "outputs": [],
      "stateMutability": "nonpayable",
      "type": "function"
    }
  ],
  "bytecode": "0x60806040523480156200001157600080fd5b50604051620034df380380620034df83398181016040528101906200003791906200028b565b818181600090805190602001906200005192919062000169565b5080600190805190602001906200006a92919062000169565b50505060006200007f6200016160201b60201c565b905080600660006101000a81548173ffffffffffffffffffffffffffffffffffffffff021916908373ffffffffffffffffffffffffffffffffffffffff1602179055508073ffffffffffffffffffffffffffffffffffffffff16600073ffffffffffffffffffffffffffffffffffffffff167f8be0079c531659141344cd1fd0a4f28419497f9722a3daafe3b4186f6b6457e060405160405180910390a3507f451a95fdf4424d3f1fc736b5787f5b9186e21c8af9c4cef020067be638e1ad0e42336040516200015192919062000320565b60405180910390a15050620004fb565b600033905090565b828054620001779062000420565b90600052602060002090601f0160209004810192826200019b5760008555620001e7565b82601f10620001b657805160ff1916838001178555620001e7565b82800160010185558215620001e7579182015b82811115620001e6578251825591602001919060010190620001c9565b5b509050620001f69190620001fa565b5090565b5b8082111562000215576000816000905550600101620001fb565b5090565b6000620002306200022a8462000376565b6200034d565b9050828152602081018484840111156200024957600080fd5b62000256848285620003ea565b509392505050565b600082601f8301126200027057600080fd5b81516200028284826020860162000219565b91505092915050565b600080604083850312156200029f57600080fd5b600083015167ffffffffffffffff811115620002ba57600080fd5b620002c8858286016200025e565b925050602083015167ffffffffffffffff811115620002e657600080fd5b620002f4858286016200025e565b9150509250929050565b6200030981620003ac565b82525050565b6200031a81620003e0565b82525050565b60006040820190506200033760008301856200030f565b620003466020830184620002fe565b9392505050565b6000620003596200036c565b905062000367828262000456565b919050565b6000604051905090565b600067ffffffffffffffff821115620003945762000393620004bb565b5b6200039f82620004ea565b9050602081019050919050565b6000620003b982620003c0565b9050919050565b600073ffffffffffffffffffffffffffffffffffffffff82169050919050565b6000819050919050565b60005b838110156200040a578082015181840152602081019050620003ed565b838111156200041a576000848401525b50505050565b600060028204905060018216806200043957607f821691505b6020821081141562000450576200044f6200048c565b5b50919050565b6200046182620004ea565b810181811067ffffffffffffffff82111715620004835762000482620004bb565b5b80604052505050565b7f4e487b7100000000000000000000000000000000000000000000000000000000600052602260045260246000fd5b7f4e487b7100000000000000000000000000000000000000000000000000000000600052604160045260246000fd5b6000601f19601f8301169050919050565b612fd4806200050b6000396000f3fe608060405234801561001057600080fd5b50600436106101375760003560e01c8063715018a6116100b8578063a56140331161007c578063a56140331461034e578063b88d4fde1461037e578063c7c3268b1461039a578063c87b56dd146103b6578063e985e9c5146103e6578063f2fde38b1461041657610137565b8063715018a6146102bc5780638ad91345146102c65780638da5cb5b146102f657806395d89b4114610314578063a22cb4651461033257610137565b806323b872dd116100ff57806323b872dd146101f457806342842e0e1461021057806352de4ee51461022c5780636352211e1461025c57806370a082311461028c57610137565b806301ffc9a71461013c57806306fdde031461016c578063081812fc1461018a578063095ea7b3146101ba57806317d70f7c146101d6575b600080fd5b61015660048036038101906101519190611fcc565b610432565b6040516101639190612539565b60405180910390f35b610174610514565b6040516101819190612554565b60405180910390f35b6101a4600480360381019061019f919061205f565b6105a6565b6040516101b191906124b0565b60405180910390f35b6101d460048036038101906101cf9190611f90565b61062b565b005b6101de610743565b6040516101eb9190612776565b60405180910390f35b61020e60048036038101906102099190611e36565b61074f565b005b61022a60048036038101906102259190611e36565b6107af565b005b61024660048036038101906102419190611dd1565b6107cf565b6040516102539190612517565b60405180910390f35b6102766004803603810190610271919061205f565b610866565b60405161028391906124b0565b60405180910390f35b6102a660048036038101906102a19190611dd1565b610918565b6040516102b39190612776565b60405180910390f35b6102c46109d0565b005b6102e060048036038101906102db919061205f565b610b0d565b6040516102ed9190612554565b60405180910390f35b6102fe610bb2565b60405161030b91906124b0565b60405180910390f35b61031c610bdc565b6040516103299190612554565b60405180910390f35b61034c60048036038101906103479190611f00565b610c6e565b005b61036860048036038101906103639190611f3c565b610def565b6040516103759190612776565b60405180910390f35b61039860048036038101906103939190611e85565b610eac565b005b6103b460048036038101906103af919061201e565b610f0e565b005b6103d060048036038101906103cb919061205f565b610fa4565b6040516103dd9190612554565b60405180910390f35b61040060048036038101906103fb9190611dfa565b611055565b60405161040d9190612539565b60405180910390f35b610430600480360381019061042b9190611dd1565b6110e9565b005b60007f80ac58cd000000000000000000000000000000000000000000000000000000007bffffffffffffffffffffffffffffffffffffffffffffffffffffffff1916827bffffffffffffffffffffffffffffffffffffffffffffffffffffffff191614806104fd57507f5b5e139f000000000000000000000000000000000000000000000000000000007bffffffffffffffffffffffffffffffffffffffffffffffffffffffff1916827bffffffffffffffffffffffffffffffffffffffffffffffffffffffff1916145b8061050d575061050c82611295565b5b9050919050565b606060008054610523906129e9565b80601f016020809104026020016040519081016040528092919081815260200182805461054f906129e9565b801561059c5780601f106105715761010080835404028352916020019161059c565b820191906000526020600020905b81548152906001019060200180831161057f57829003601f168201915b5050505050905090565b60006105b1826112ff565b6105f0576040517f08c379a00000000000000000000000000000000000000000000000000000000081526004016105e7906126b6565b60405180910390fd5b6004600083815260200190815260200160002060009054906101000a900473ffffffffffffffffffffffffffffffffffffffff169050919050565b600061063682610866565b90508073ffffffffffffffffffffffffffffffffffffffff168373ffffffffffffffffffffffffffffffffffffffff1614156106a7576040517f08c379a000000000000000000000000000000000000000000000000000000000815260040161069e90612736565b60405180910390fd5b8073ffffffffffffffffffffffffffffffffffffffff166106c661136b565b73ffffffffffffffffffffffffffffffffffffffff1614806106f557506106f4816106ef61136b565b611055565b5b610734576040517f08c379a000000000000000000000000000000000000000000000000000000000815260040161072b90612636565b60405180910390fd5b61073e8383611373565b505050565b60078060000154905081565b61076061075a61136b565b8261142c565b61079f576040517f08c379a000000000000000000000000000000000000000000000000000000000815260040161079690612756565b60405180910390fd5b6107aa83838361150a565b505050565b6107ca83838360405180602001604052806000815250610eac565b505050565b6060600a60008373ffffffffffffffffffffffffffffffffffffffff1673ffffffffffffffffffffffffffffffffffffffff16815260200190815260200160002080548060200260200160405190810160405280929190818152602001828054801561085a57602002820191906000526020600020905b815481526020019060010190808311610846575b50505050509050919050565b6000806002600084815260200190815260200160002060009054906101000a900473ffffffffffffffffffffffffffffffffffffffff169050600073ffffffffffffffffffffffffffffffffffffffff168173ffffffffffffffffffffffffffffffffffffffff16141561090f576040517f08c379a000000000000000000000000000000000000000000000000000000000815260040161090690612676565b60405180910390fd5b80915050919050565b60008073ffffffffffffffffffffffffffffffffffffffff168273ffffffffffffffffffffffffffffffffffffffff161415610989576040517f08c379a000000000000000000000000000000000000000000000000000000000815260040161098090612656565b60405180910390fd5b600360008373ffffffffffffffffffffffffffffffffffffffff1673ffffffffffffffffffffffffffffffffffffffff168152602001908152602001600020549050919050565b6109d861136b565b73ffffffffffffffffffffffffffffffffffffffff166109f6610bb2565b73ffffffffffffffffffffffffffffffffffffffff1614610a4c576040517f08c379a0000000000000000000000000000000000000000000000000000000008152600401610a43906126d6565b60405180910390fd5b600073ffffffffffffffffffffffffffffffffffffffff16600660009054906101000a900473ffffffffffffffffffffffffffffffffffffffff1673ffffffffffffffffffffffffffffffffffffffff167f8be0079c531659141344cd1fd0a4f28419497f9722a3daafe3b4186f6b6457e060405160405180910390a36000600660006101000a81548173ffffffffffffffffffffffffffffffffffffffff021916908373ffffffffffffffffffffffffffffffffffffffff160217905550565b6060600960008381526020019081526020016000208054610b2d906129e9565b80601f0160208091040260200160405190810160405280929190818152602001828054610b59906129e9565b8015610ba65780601f10610b7b57610100808354040283529160200191610ba6565b820191906000526020600020905b815481529060010190602001808311610b8957829003601f168201915b50505050509050919050565b6000600660009054906101000a900473ffffffffffffffffffffffffffffffffffffffff16905090565b606060018054610beb906129e9565b80601f0160208091040260200160405190810160405280929190818152602001828054610c17906129e9565b8015610c645780601f10610c3957610100808354040283529160200191610c64565b820191906000526020600020905b815481529060010190602001808311610c4757829003601f168201915b5050505050905090565b610c7661136b565b73ffffffffffffffffffffffffffffffffffffffff168273ffffffffffffffffffffffffffffffffffffffff161415610ce4576040517f08c379a0000000000000000000000000000000000000000000000000000000008152600401610cdb906125f6565b60405180910390fd5b8060056000610cf161136b565b73ffffffffffffffffffffffffffffffffffffffff1673ffffffffffffffffffffffffffffffffffffffff16815260200190815260200160002060008473ffffffffffffffffffffffffffffffffffffffff1673ffffffffffffffffffffffffffffffffffffffff16815260200190815260200160002060006101000a81548160ff0219169083151502179055508173ffffffffffffffffffffffffffffffffffffffff16610d9e61136b565b73ffffffffffffffffffffffffffffffffffffffff167f17307eab39ab6107e8899845ad3d59bd9653f200f220920489ca2b5937696c3183604051610de39190612539565b60405180910390a35050565b6000610dfb6007611766565b6000610e07600761177c565b9050610e13848261178a565b82600960008381526020019081526020016000209080519060200190610e3a929190611bf5565b50600a60008573ffffffffffffffffffffffffffffffffffffffff1673ffffffffffffffffffffffffffffffffffffffff168152602001908152602001600020819080600181540180825580915050600190039060005260206000200160009091909190915055600191505092915050565b610ebd610eb761136b565b8361142c565b610efc576040517f08c379a0000000000000000000000000000000000000000000000000000000008152600401610ef390612756565b60405180910390fd5b610f0884848484611958565b50505050565b610f1661136b565b73ffffffffffffffffffffffffffffffffffffffff16610f34610bb2565b73ffffffffffffffffffffffffffffffffffffffff1614610f8a576040517f08c379a0000000000000000000000000000000000000000000000000000000008152600401610f81906126d6565b60405180910390fd5b8060089080519060200190610fa0929190611bf5565b5050565b6060610faf826112ff565b610fee576040517f08c379a0000000000000000000000000000000000000000000000000000000008152600401610fe590612716565b60405180910390fd5b6000610ff86119b4565b90506000815111611018576040518060200160405280600081525061104d565b806009600085815260200190815260200160002060405160200161103d92919061248c565b6040516020818303038152906040525b915050919050565b6000600560008473ffffffffffffffffffffffffffffffffffffffff1673ffffffffffffffffffffffffffffffffffffffff16815260200190815260200160002060008373ffffffffffffffffffffffffffffffffffffffff1673ffffffffffffffffffffffffffffffffffffffff16815260200190815260200160002060009054906101000a900460ff16905092915050565b6110f161136b565b73ffffffffffffffffffffffffffffffffffffffff1661110f610bb2565b73ffffffffffffffffffffffffffffffffffffffff1614611165576040517f08c379a000000000000000000000000000000000000000000000000000000000815260040161115c906126d6565b60405180910390fd5b600073ffffffffffffffffffffffffffffffffffffffff168173ffffffffffffffffffffffffffffffffffffffff1614156111d5576040517f08c379a00000000000000000000000000000000000000000000000000000000081526004016111cc90612596565b60405180910390fd5b8073ffffffffffffffffffffffffffffffffffffffff16600660009054906101000a900473ffffffffffffffffffffffffffffffffffffffff1673ffffffffffffffffffffffffffffffffffffffff167f8be0079c531659141344cd1fd0a4f28419497f9722a3daafe3b4186f6b6457e060405160405180910390a380600660006101000a81548173ffffffffffffffffffffffffffffffffffffffff021916908373ffffffffffffffffffffffffffffffffffffffff16021790555050565b60007f01ffc9a7000000000000000000000000000000000000000000000000000000007bffffffffffffffffffffffffffffffffffffffffffffffffffffffff1916827bffffffffffffffffffffffffffffffffffffffffffffffffffffffff1916149050919050565b60008073ffffffffffffffffffffffffffffffffffffffff166002600084815260200190815260200160002060009054906101000a900473ffffffffffffffffffffffffffffffffffffffff1673ffffffffffffffffffffffffffffffffffffffff1614159050919050565b600033905090565b816004600083815260200190815260200160002060006101000a81548173ffffffffffffffffffffffffffffffffffffffff021916908373ffffffffffffffffffffffffffffffffffffffff160217905550808273ffffffffffffffffffffffffffffffffffffffff166113e683610866565b73ffffffffffffffffffffffffffffffffffffffff167f8c5be1e5ebec7d5bd14f71427d1e84f3dd0314c0f7b2291e5b200ac8c7c3b92560405160405180910390a45050565b6000611437826112ff565b611476576040517f08c379a000000000000000000000000000000000000000000000000000000000815260040161146d90612616565b60405180910390fd5b600061148183610866565b90508073ffffffffffffffffffffffffffffffffffffffff168473ffffffffffffffffffffffffffffffffffffffff1614806114f057508373ffffffffffffffffffffffffffffffffffffffff166114d8846105a6565b73ffffffffffffffffffffffffffffffffffffffff16145b8061150157506115008185611055565b5b91505092915050565b8273ffffffffffffffffffffffffffffffffffffffff1661152a82610866565b73ffffffffffffffffffffffffffffffffffffffff1614611580576040517f08c379a0000000000000000000000000000000000000000000000000000000008152600401611577906126f6565b60405180910390fd5b600073ffffffffffffffffffffffffffffffffffffffff168273ffffffffffffffffffffffffffffffffffffffff1614156115f0576040517f08c379a00000000000000000000000000000000000000000000000000000000081526004016115e7906125d6565b60405180910390fd5b6115fb838383611a46565b611606600082611373565b6001600360008573ffffffffffffffffffffffffffffffffffffffff1673ffffffffffffffffffffffffffffffffffffffff168152602001908152602001600020600082825461165691906128ff565b925050819055506001600360008473ffffffffffffffffffffffffffffffffffffffff1673ffffffffffffffffffffffffffffffffffffffff16815260200190815260200160002060008282546116ad91906128a9565b92505081905550816002600083815260200190815260200160002060006101000a81548173ffffffffffffffffffffffffffffffffffffffff021916908373ffffffffffffffffffffffffffffffffffffffff160217905550808273ffffffffffffffffffffffffffffffffffffffff168473ffffffffffffffffffffffffffffffffffffffff167fddf252ad1be2c89b69c2b068fc378daa952ba7f163c4a11628f55a4df523b3ef60405160405180910390a4505050565b6001816000016000828254019250508190555050565b600081600001549050919050565b600073ffffffffffffffffffffffffffffffffffffffff168273ffffffffffffffffffffffffffffffffffffffff1614156117fa576040517f08c379a00000000000000000000000000000000000000000000000000000000081526004016117f190612696565b60405180910390fd5b611803816112ff565b15611843576040517f08c379a000000000000000000000000000000000000000000000000000000000815260040161183a906125b6565b60405180910390fd5b61184f60008383611a46565b6001600360008473ffffffffffffffffffffffffffffffffffffffff1673ffffffffffffffffffffffffffffffffffffffff168152602001908152602001600020600082825461189f91906128a9565b92505081905550816002600083815260200190815260200160002060006101000a81548173ffffffffffffffffffffffffffffffffffffffff021916908373ffffffffffffffffffffffffffffffffffffffff160217905550808273ffffffffffffffffffffffffffffffffffffffff16600073ffffffffffffffffffffffffffffffffffffffff167fddf252ad1be2c89b69c2b068fc378daa952ba7f163c4a11628f55a4df523b3ef60405160405180910390a45050565b61196384848461150a565b61196f84848484611a4b565b6119ae576040517f08c379a00000000000000000000000000000000000000000000000000000000081526004016119a590612576565b60405180910390fd5b50505050565b6060600880546119c3906129e9565b80601f01602080910402602001604051908101604052809291908181526020018280546119ef906129e9565b8015611a3c5780601f10611a1157610100808354040283529160200191611a3c565b820191906000526020600020905b815481529060010190602001808311611a1f57829003601f168201915b5050505050905090565b505050565b6000611a6c8473ffffffffffffffffffffffffffffffffffffffff16611be2565b15611bd5578373ffffffffffffffffffffffffffffffffffffffff1663150b7a02611a9561136b565b8786866040518563ffffffff1660e01b8152600401611ab794939291906124cb565b602060405180830381600087803b158015611ad157600080fd5b505af1925050508015611b0257506040513d601f19601f82011682018060405250810190611aff9190611ff5565b60015b611b85573d8060008114611b32576040519150601f19603f3d011682016040523d82523d6000602084013e611b37565b606091505b50600081511415611b7d576040517f08c379a0000000000000000000000000000000000000000000000000000000008152600401611b7490612576565b60405180910390fd5b805181602001fd5b63150b7a0260e01b7bffffffffffffffffffffffffffffffffffffffffffffffffffffffff1916817bffffffffffffffffffffffffffffffffffffffffffffffffffffffff191614915050611bda565b600190505b949350505050565b600080823b905060008111915050919050565b828054611c01906129e9565b90600052602060002090601f016020900481019282611c235760008555611c6a565b82601f10611c3c57805160ff1916838001178555611c6a565b82800160010185558215611c6a579182015b82811115611c69578251825591602001919060010190611c4e565b5b509050611c779190611c7b565b5090565b5b80821115611c94576000816000905550600101611c7c565b5090565b6000611cab611ca6846127b6565b612791565b905082815260208101848484011115611cc357600080fd5b611cce8482856129a7565b509392505050565b6000611ce9611ce4846127e7565b612791565b905082815260208101848484011115611d0157600080fd5b611d0c8482856129a7565b509392505050565b600081359050611d2381612f42565b92915050565b600081359050611d3881612f59565b92915050565b600081359050611d4d81612f70565b92915050565b600081519050611d6281612f70565b92915050565b600082601f830112611d7957600080fd5b8135611d89848260208601611c98565b91505092915050565b600082601f830112611da357600080fd5b8135611db3848260208601611cd6565b91505092915050565b600081359050611dcb81612f87565b92915050565b600060208284031215611de357600080fd5b6000611df184828501611d14565b91505092915050565b60008060408385031215611e0d57600080fd5b6000611e1b85828601611d14565b9250506020611e2c85828601611d14565b9150509250929050565b600080600060608486031215611e4b57600080fd5b6000611e5986828701611d14565b9350506020611e6a86828701611d14565b9250506040611e7b86828701611dbc565b9150509250925092565b60008060008060808587031215611e9b57600080fd5b6000611ea987828801611d14565b9450506020611eba87828801611d14565b9350506040611ecb87828801611dbc565b925050606085013567ffffffffffffffff811115611ee857600080fd5b611ef487828801611d68565b91505092959194509250565b60008060408385031215611f1357600080fd5b6000611f2185828601611d14565b9250506020611f3285828601611d29565b9150509250929050565b60008060408385031215611f4f57600080fd5b6000611f5d85828601611d14565b925050602083013567ffffffffffffffff811115611f7a57600080fd5b611f8685828601611d92565b9150509250929050565b60008060408385031215611fa357600080fd5b6000611fb185828601611d14565b9250506020611fc285828601611dbc565b9150509250929050565b600060208284031215611fde57600080fd5b6000611fec84828501611d3e565b91505092915050565b60006020828403121561200757600080fd5b600061201584828501611d53565b91505092915050565b60006020828403121561203057600080fd5b600082013567ffffffffffffffff81111561204a57600080fd5b61205684828501611d92565b91505092915050565b60006020828403121561207157600080fd5b600061207f84828501611dbc565b91505092915050565b6000612094838361246e565b60208301905092915050565b6120a981612933565b82525050565b60006120ba8261283d565b6120c4818561286b565b93506120cf83612818565b8060005b838110156121005781516120e78882612088565b97506120f28361285e565b9250506001810190506120d3565b5085935050505092915050565b61211681612945565b82525050565b600061212782612848565b612131818561287c565b93506121418185602086016129b6565b61214a81612ad9565b840191505092915050565b600061216082612853565b61216a818561288d565b935061217a8185602086016129b6565b61218381612ad9565b840191505092915050565b600061219982612853565b6121a3818561289e565b93506121b38185602086016129b6565b80840191505092915050565b600081546121cc816129e9565b6121d6818661289e565b945060018216600081146121f1576001811461220257612235565b60ff19831686528186019350612235565b61220b85612828565b60005b8381101561222d5781548189015260018201915060208101905061220e565b838801955050505b50505092915050565b600061224b60328361288d565b915061225682612aea565b604082019050919050565b600061226e60268361288d565b915061227982612b39565b604082019050919050565b6000612291601c8361288d565b915061229c82612b88565b602082019050919050565b60006122b460248361288d565b91506122bf82612bb1565b604082019050919050565b60006122d760198361288d565b91506122e282612c00565b602082019050919050565b60006122fa602c8361288d565b915061230582612c29565b604082019050919050565b600061231d60388361288d565b915061232882612c78565b604082019050919050565b6000612340602a8361288d565b915061234b82612cc7565b604082019050919050565b600061236360298361288d565b915061236e82612d16565b604082019050919050565b600061238660208361288d565b915061239182612d65565b602082019050919050565b60006123a9602c8361288d565b91506123b482612d8e565b604082019050919050565b60006123cc60208361288d565b91506123d782612ddd565b602082019050919050565b60006123ef60298361288d565b91506123fa82612e06565b604082019050919050565b6000612412602f8361288d565b915061241d82612e55565b604082019050919050565b600061243560218361288d565b915061244082612ea4565b604082019050919050565b600061245860318361288d565b915061246382612ef3565b604082019050919050565b6124778161299d565b82525050565b6124868161299d565b82525050565b6000612498828561218e565b91506124a482846121bf565b91508190509392505050565b60006020820190506124c560008301846120a0565b92915050565b60006080820190506124e060008301876120a0565b6124ed60208301866120a0565b6124fa604083018561247d565b818103606083015261250c818461211c565b905095945050505050565b6000602082019050818103600083015261253181846120af565b905092915050565b600060208201905061254e600083018461210d565b92915050565b6000602082019050818103600083015261256e8184612155565b905092915050565b6000602082019050818103600083015261258f8161223e565b9050919050565b600060208201905081810360008301526125af81612261565b9050919050565b600060208201905081810360008301526125cf81612284565b9050919050565b600060208201905081810360008301526125ef816122a7565b9050919050565b6000602082019050818103600083015261260f816122ca565b9050919050565b6000602082019050818103600083015261262f816122ed565b9050919050565b6000602082019050818103600083015261264f81612310565b9050919050565b6000602082019050818103600083015261266f81612333565b9050919050565b6000602082019050818103600083015261268f81612356565b9050919050565b600060208201905081810360008301526126af81612379565b9050919050565b600060208201905081810360008301526126cf8161239c565b9050919050565b600060208201905081810360008301526126ef816123bf565b9050919050565b6000602082019050818103600083015261270f816123e2565b9050919050565b6000602082019050818103600083015261272f81612405565b9050919050565b6000602082019050818103600083015261274f81612428565b9050919050565b6000602082019050818103600083015261276f8161244b565b9050919050565b600060208201905061278b600083018461247d565b92915050565b600061279b6127ac565b90506127a78282612a1b565b919050565b6000604051905090565b600067ffffffffffffffff8211156127d1576127d0612aaa565b5b6127da82612ad9565b9050602081019050919050565b600067ffffffffffffffff82111561280257612801612aaa565b5b61280b82612ad9565b9050602081019050919050565b6000819050602082019050919050565b60008190508160005260206000209050919050565b600081519050919050565b600081519050919050565b600081519050919050565b6000602082019050919050565b600082825260208201905092915050565b600082825260208201905092915050565b600082825260208201905092915050565b600081905092915050565b60006128b48261299d565b91506128bf8361299d565b9250827fffffffffffffffffffffffffffffffffffffffffffffffffffffffffffffffff038211156128f4576128f3612a4c565b5b828201905092915050565b600061290a8261299d565b91506129158361299d565b92508282101561292857612927612a4c565b5b828203905092915050565b600061293e8261297d565b9050919050565b60008115159050919050565b60007fffffffff0000000000000000000000000000000000000000000000000000000082169050919050565b600073ffffffffffffffffffffffffffffffffffffffff82169050919050565b6000819050919050565b82818337600083830152505050565b60005b838110156129d45780820151818401526020810190506129b9565b838111156129e3576000848401525b50505050565b60006002820490506001821680612a0157607f821691505b60208210811415612a1557612a14612a7b565b5b50919050565b612a2482612ad9565b810181811067ffffffffffffffff82111715612a4357612a42612aaa565b5b80604052505050565b7f4e487b7100000000000000000000000000000000000000000000000000000000600052601160045260246000fd5b7f4e487b7100000000000000000000000000000000000000000000000000000000600052602260045260246000fd5b7f4e487b7100000000000000000000000000000000000000000000000000000000600052604160045260246000fd5b6000601f19601f8301169050919050565b7f4552433732313a207472616e7366657220746f206e6f6e20455243373231526560008201527f63656976657220696d706c656d656e7465720000000000000000000000000000602082015250565b7f4f776e61626c653a206e6577206f776e657220697320746865207a65726f206160008201527f6464726573730000000000000000000000000000000000000000000000000000602082015250565b7f4552433732313a20746f6b656e20616c7265616479206d696e74656400000000600082015250565b7f4552433732313a207472616e7366657220746f20746865207a65726f2061646460008201527f7265737300000000000000000000000000000000000000000000000000000000602082015250565b7f4552433732313a20617070726f766520746f2063616c6c657200000000000000600082015250565b7f4552433732313a206f70657261746f7220717565727920666f72206e6f6e657860008201527f697374656e7420746f6b656e0000000000000000000000000000000000000000602082015250565b7f4552433732313a20617070726f76652063616c6c6572206973206e6f74206f7760008201527f6e6572206e6f7220617070726f76656420666f7220616c6c0000000000000000602082015250565b7f4552433732313a2062616c616e636520717565727920666f7220746865207a6560008201527f726f206164647265737300000000000000000000000000000000000000000000602082015250565b7f4552433732313a206f776e657220717565727920666f72206e6f6e657869737460008201527f656e7420746f6b656e0000000000000000000000000000000000000000000000602082015250565b7f4552433732313a206d696e7420746f20746865207a65726f2061646472657373600082015250565b7f4552433732313a20617070726f76656420717565727920666f72206e6f6e657860008201527f697374656e7420746f6b656e0000000000000000000000000000000000000000602082015250565b7f4f776e61626c653a2063616c6c6572206973206e6f7420746865206f776e6572600082015250565b7f4552433732313a207472616e73666572206f6620746f6b656e2074686174206960008201527f73206e6f74206f776e0000000000000000000000000000000000000000000000602082015250565b7f4552433732314d657461646174613a2055524920717565727920666f72206e6f60008201527f6e6578697374656e7420746f6b656e0000000000000000000000000000000000602082015250565b7f4552433732313a20617070726f76616c20746f2063757272656e74206f776e6560008201527f7200000000000000000000000000000000000000000000000000000000000000602082015250565b7f4552433732313a207472616e736665722063616c6c6572206973206e6f74206f60008201527f776e6572206e6f7220617070726f766564000000000000000000000000000000602082015250565b612f4b81612933565b8114612f5657600080fd5b50565b612f6281612945565b8114612f6d57600080fd5b50565b612f7981612951565b8114612f8457600080fd5b50565b612f908161299d565b8114612f9b57600080fd5b5056fea2646970667358221220ba6a9ac8ce2a6f7ff16964e14d220adc053c5d01f01a4517939035f722c23f8d64736f6c63430008020033",
  "immutableReferences": {},
  "source": "pragma solidity ^0.8.0;\r\n\r\nimport '@openzeppelin/contracts/token/ERC721/ERC721.sol';\r\nimport \"@openzeppelin/contracts/utils/Counters.sol\";\r\nimport '@openzeppelin/contracts/access/Ownable.sol';\r\n\r\ncontract OpenNFT is ERC721, Ownable {\r\n    using Counters for Counters.Counter;\r\n    Counters.Counter public tokenId;\r\n\r\n    string private baseUri;\r\n\r\n    event NFTInitialised(uint _time, address _caller);\r\n\r\n    mapping(uint => string) private tokenURIs;\r\n\r\n    mapping(address => uint[]) private user_to_tokens;  //new\r\n\r\n    constructor (\r\n        string memory _name,\r\n        string memory _symbol\r\n    ) \r\n    public \r\n    ERC721(_name, _symbol)\r\n    {\r\n        emit NFTInitialised(block.timestamp, msg.sender);\r\n    }\r\n\r\n    function createNFT(address _creator, string memory _tokenURI) \r\n                                    public returns(uint _reward) {\r\n        tokenId.increment();\r\n\r\n        uint newTokenId = tokenId.current();\r\n\r\n        _mint(_creator, newTokenId);\r\n        tokenURIs[newTokenId] = _tokenURI;\r\n\r\n        user_to_tokens[_creator].push(newTokenId);  //new\r\n\r\n        return 1;\r\n    }\r\n\r\n    function getUserNFTs(address _creator) public \r\n                                view returns(uint[] memory _tokens) {\r\n        return user_to_tokens[_creator];\r\n    }\r\n\r\n    function getTokenUri(uint _tokenId) public \r\n                                view returns(string memory tokenUri_){\r\n        return tokenURIs[_tokenId];\r\n    }\r\n\r\n    function tokenURI(uint256 _tokenId) public view virtual override returns (string memory _uri) {\r\n        require(_exists(_tokenId), \"ERC721Metadata: URI query for nonexistent token\");\r\n\r\n        string memory baseURI = _baseURI();\r\n        return bytes(baseURI).length > 0\r\n            ? string(abi.encodePacked(baseURI, tokenURIs[_tokenId]))\r\n            : '';\r\n    }\r\n\r\n    function setBaseUrl(string memory baseUri_) public onlyOwner {\r\n        baseUri = baseUri_;\r\n    }\r\n\r\n    function _baseURI() internal view override returns(string memory _base_URI){\r\n        return baseUri;\r\n    }\r\n\r\n}",
  "sourcePath": "E:\\Projects\\BlockchainBootcamp\\OpenNFT\\contracts\\OpenNFT.sol",
  "compiler": {
    "name": "solc",
    "version": "0.8.2+commit.661d1103.Emscripten.clang"
  },
  "schemaVersion": "3.3.4",
  "updatedAt": "2021-03-18T12:22:50.814Z",
  "networkType": "ethereum",
  "devdoc": {
    "kind": "dev",
    "methods": {
      "approve(address,uint256)": {
        "details": "See {IERC721-approve}."
      },
      "balanceOf(address)": {
        "details": "See {IERC721-balanceOf}."
      },
      "getApproved(uint256)": {
        "details": "See {IERC721-getApproved}."
      },
      "isApprovedForAll(address,address)": {
        "details": "See {IERC721-isApprovedForAll}."
      },
      "name()": {
        "details": "See {IERC721Metadata-name}."
      },
      "owner()": {
        "details": "Returns the address of the current owner."
      },
      "ownerOf(uint256)": {
        "details": "See {IERC721-ownerOf}."
      },
      "renounceOwnership()": {
        "details": "Leaves the contract without owner. It will not be possible to call `onlyOwner` functions anymore. Can only be called by the current owner. NOTE: Renouncing ownership will leave the contract without an owner, thereby removing any functionality that is only available to the owner."
      },
      "safeTransferFrom(address,address,uint256)": {
        "details": "See {IERC721-safeTransferFrom}."
      },
      "safeTransferFrom(address,address,uint256,bytes)": {
        "details": "See {IERC721-safeTransferFrom}."
      },
      "setApprovalForAll(address,bool)": {
        "details": "See {IERC721-setApprovalForAll}."
      },
      "supportsInterface(bytes4)": {
        "details": "See {IERC165-supportsInterface}."
      },
      "symbol()": {
        "details": "See {IERC721Metadata-symbol}."
      },
      "transferFrom(address,address,uint256)": {
        "details": "See {IERC721-transferFrom}."
      },
      "transferOwnership(address)": {
        "details": "Transfers ownership of the contract to a new account (`newOwner`). Can only be called by the current owner."
      }
    },
    "version": 1
  },
  "userdoc": {
    "kind": "user",
    "methods": {},
    "version": 1
  }
}